{
  "contractName": "Marketplace",
  "abi": [
    {
      "constant": true,
      "inputs": [],
      "name": "richest",
      "outputs": [
        {
          "name": "",
          "type": "address"
        }
      ],
      "payable": false,
      "stateMutability": "view",
      "type": "function",
      "signature": "0x02e26c38"
    },
    {
      "constant": true,
      "inputs": [],
      "name": "name",
      "outputs": [
        {
          "name": "",
          "type": "string"
        }
      ],
      "payable": false,
      "stateMutability": "view",
      "type": "function",
      "signature": "0x06fdde03"
    },
    {
      "constant": true,
      "inputs": [],
      "name": "requestCount",
      "outputs": [
        {
          "name": "",
          "type": "uint256"
        }
      ],
      "payable": false,
      "stateMutability": "view",
      "type": "function",
      "signature": "0x5badbe4c"
    },
    {
      "constant": true,
      "inputs": [],
      "name": "mostSent",
      "outputs": [
        {
          "name": "",
          "type": "uint256"
        }
      ],
      "payable": false,
      "stateMutability": "view",
      "type": "function",
      "signature": "0x6886bf1c"
    },
    {
      "constant": true,
      "inputs": [
        {
          "name": "",
          "type": "uint256"
        }
      ],
      "name": "products",
      "outputs": [
        {
          "name": "id",
          "type": "uint256"
        },
        {
          "name": "name",
          "type": "string"
        },
        {
          "name": "price",
          "type": "uint256"
        },
        {
          "name": "owner",
          "type": "address"
        },
        {
          "name": "purchased",
          "type": "bool"
        }
      ],
      "payable": false,
      "stateMutability": "view",
      "type": "function",
      "signature": "0x7acc0b20"
    },
    {
      "constant": true,
      "inputs": [
        {
          "name": "",
          "type": "uint256"
        }
      ],
      "name": "requests",
      "outputs": [
        {
          "name": "id",
          "type": "uint256"
        },
        {
          "name": "name",
          "type": "string"
        },
        {
          "name": "price",
          "type": "uint256"
        },
        {
          "name": "owner",
          "type": "address"
        },
        {
          "name": "purchased",
          "type": "bool"
        }
      ],
      "payable": false,
      "stateMutability": "view",
      "type": "function",
      "signature": "0x81d12c58"
    },
    {
      "constant": true,
      "inputs": [],
      "name": "productCount",
      "outputs": [
        {
          "name": "",
          "type": "uint256"
        }
      ],
      "payable": false,
      "stateMutability": "view",
      "type": "function",
      "signature": "0xe0f6ef87"
    },
    {
      "inputs": [],
      "payable": true,
      "stateMutability": "payable",
      "type": "constructor",
      "signature": "constructor"
    },
    {
      "anonymous": false,
      "inputs": [
        {
          "indexed": true,
          "name": "_from",
          "type": "address"
        },
        {
          "indexed": true,
          "name": "_to",
          "type": "address"
        },
        {
          "indexed": false,
          "name": "_value",
          "type": "uint256"
        }
      ],
      "name": "Transfer",
      "type": "event",
      "signature": "0xddf252ad1be2c89b69c2b068fc378daa952ba7f163c4a11628f55a4df523b3ef"
    },
    {
      "anonymous": false,
      "inputs": [
        {
          "indexed": false,
          "name": "id",
          "type": "uint256"
        },
        {
          "indexed": false,
          "name": "name",
          "type": "string"
        },
        {
          "indexed": false,
          "name": "price",
          "type": "uint256"
        },
        {
          "indexed": false,
          "name": "owner",
          "type": "address"
        },
        {
          "indexed": false,
          "name": "purchased",
          "type": "bool"
        }
      ],
      "name": "ProductCreated",
      "type": "event",
      "signature": "0xbc59c0c8165864dcceb377dd07d8f431d4303f8e501cb0a0374a10cc68d71836"
    },
    {
      "anonymous": false,
      "inputs": [
        {
          "indexed": false,
          "name": "id",
          "type": "uint256"
        },
        {
          "indexed": false,
          "name": "name",
          "type": "string"
        },
        {
          "indexed": false,
          "name": "price",
          "type": "uint256"
        },
        {
          "indexed": false,
          "name": "owner",
          "type": "address"
        },
        {
          "indexed": false,
          "name": "purchased",
          "type": "bool"
        }
      ],
      "name": "ProductDeleted",
      "type": "event",
      "signature": "0xf496dc4104e8c07326315993c897f67e7884a69826c2955fd5616becff721413"
    },
    {
      "anonymous": false,
      "inputs": [
        {
          "indexed": false,
          "name": "id",
          "type": "uint256"
        },
        {
          "indexed": false,
          "name": "name",
          "type": "string"
        },
        {
          "indexed": false,
          "name": "price",
          "type": "uint256"
        },
        {
          "indexed": false,
          "name": "owner",
          "type": "address"
        },
        {
          "indexed": false,
          "name": "purchased",
          "type": "bool"
        }
      ],
      "name": "ProductPurchased",
      "type": "event",
      "signature": "0x79558d0d7d4d900e2f15c4cc0a665f1acdbe415e44de900ecdd1e5bf12b56f4e"
    },
    {
      "anonymous": false,
      "inputs": [
        {
          "indexed": false,
          "name": "id",
          "type": "uint256"
        },
        {
          "indexed": false,
          "name": "name",
          "type": "string"
        },
        {
          "indexed": false,
          "name": "price",
          "type": "uint256"
        },
        {
          "indexed": false,
          "name": "owner",
          "type": "address"
        },
        {
          "indexed": false,
          "name": "purchased",
          "type": "bool"
        }
      ],
      "name": "RequestCreated",
      "type": "event",
      "signature": "0x602acf7c4ef8a9c024114ca18624e0d0cf61ebfeabf8d9e11a8c46250a1a06b2"
    },
    {
      "anonymous": false,
      "inputs": [
        {
          "indexed": false,
          "name": "id",
          "type": "uint256"
        },
        {
          "indexed": false,
          "name": "name",
          "type": "string"
        },
        {
          "indexed": false,
          "name": "price",
          "type": "uint256"
        },
        {
          "indexed": false,
          "name": "owner",
          "type": "address"
        },
        {
          "indexed": false,
          "name": "purchased",
          "type": "bool"
        }
      ],
      "name": "RequestDeleted",
      "type": "event",
      "signature": "0x987d8331399c0a7795e675d8a5f9d68efa60478685c4cb1dd89ec8d8de4e99be"
    },
    {
      "anonymous": false,
      "inputs": [
        {
          "indexed": false,
          "name": "id",
          "type": "uint256"
        },
        {
          "indexed": false,
          "name": "name",
          "type": "string"
        },
        {
          "indexed": false,
          "name": "price",
          "type": "uint256"
        },
        {
          "indexed": false,
          "name": "owner",
          "type": "address"
        },
        {
          "indexed": false,
          "name": "purchased",
          "type": "bool"
        }
      ],
      "name": "RequestPurchased",
      "type": "event",
      "signature": "0x88ac385b7d9feae240f18d85349cc97f7bcb62b0f4d11fdc24068c43c7a6bf3d"
    },
    {
      "constant": false,
      "inputs": [
        {
          "name": "_name",
          "type": "string"
        },
        {
          "name": "_price",
          "type": "uint256"
        }
      ],
      "name": "createProduct",
      "outputs": [],
      "payable": false,
      "stateMutability": "nonpayable",
      "type": "function",
      "signature": "0xe9300c6c"
    },
    {
      "constant": false,
      "inputs": [
        {
          "name": "_id",
          "type": "uint256"
        }
      ],
      "name": "deleteProduct",
      "outputs": [],
      "payable": false,
      "stateMutability": "nonpayable",
      "type": "function",
      "signature": "0xed90c7b7"
    },
    {
      "constant": false,
      "inputs": [],
      "name": "becomeRichest",
      "outputs": [
        {
          "name": "",
          "type": "bool"
        }
      ],
      "payable": true,
      "stateMutability": "payable",
      "type": "function",
      "signature": "0x69934ee7"
    },
    {
      "constant": false,
      "inputs": [],
      "name": "withdraw",
      "outputs": [],
      "payable": false,
      "stateMutability": "nonpayable",
      "type": "function",
      "signature": "0x3ccfd60b"
    },
    {
      "constant": false,
      "inputs": [
        {
          "name": "_id",
          "type": "uint256"
        }
      ],
      "name": "purchaseProduct",
      "outputs": [],
      "payable": true,
      "stateMutability": "payable",
      "type": "function",
      "signature": "0x38e76a03"
    },
    {
      "constant": false,
      "inputs": [
        {
          "name": "_name",
          "type": "string"
        },
        {
          "name": "_price",
          "type": "uint256"
        }
      ],
      "name": "createRequest",
      "outputs": [],
      "payable": false,
      "stateMutability": "nonpayable",
      "type": "function",
      "signature": "0xaa6e90c0"
    },
    {
      "constant": false,
      "inputs": [
        {
          "name": "_id",
          "type": "uint256"
        }
      ],
      "name": "deleteRequest",
      "outputs": [],
      "payable": false,
      "stateMutability": "nonpayable",
      "type": "function",
      "signature": "0xe9a21bcd"
    },
    {
      "constant": false,
      "inputs": [
        {
          "name": "_id",
          "type": "uint256"
        }
      ],
      "name": "purchaseRequest",
      "outputs": [],
      "payable": true,
      "stateMutability": "payable",
      "type": "function",
      "signature": "0x43f6c643"
    }
  ],
  "bytecode": "0x6080604052600060025560006003556040805190810160405280601b81526020017f4461707020556e6976657273697479204d61726b6574706c6163650000000000815250600090805190602001906200005b929190620000aa565b5033600160006101000a81548173ffffffffffffffffffffffffffffffffffffffff021916908373ffffffffffffffffffffffffffffffffffffffff1602179055503460048190555062000159565b828054600181600116156101000203166002900490600052602060002090601f016020900481019282601f10620000ed57805160ff19168380011785556200011e565b828001600101855582156200011e579182015b828111156200011d57825182559160200191906001019062000100565b5b5090506200012d919062000131565b5090565b6200015691905b808211156200015257600081600090555060010162000138565b5090565b90565b61202a80620001696000396000f3fe6080604052600436106100db576000357c0100000000000000000000000000000000000000000000000000000000900463ffffffff16806302e26c38146100e057806306fdde031461013757806338e76a03146101c75780633ccfd60b146101f557806343f6c6431461020c5780635badbe4c1461023a5780636886bf1c1461026557806369934ee7146102905780637acc0b20146102b257806381d12c58146103b2578063aa6e90c0146104b2578063e0f6ef8714610584578063e9300c6c146105af578063e9a21bcd14610681578063ed90c7b7146106bc575b600080fd5b3480156100ec57600080fd5b506100f56106f7565b604051808273ffffffffffffffffffffffffffffffffffffffff1673ffffffffffffffffffffffffffffffffffffffff16815260200191505060405180910390f35b34801561014357600080fd5b5061014c61071d565b6040518080602001828103825283818151815260200191508051906020019080838360005b8381101561018c578082015181840152602081019050610171565b50505050905090810190601f1680156101b95780820380516001836020036101000a031916815260200191505b509250505060405180910390f35b6101f3600480360360208110156101dd57600080fd5b81019080803590602001909291905050506107bb565b005b34801561020157600080fd5b5061020a610c7f565b005b6102386004803603602081101561022257600080fd5b8101908080359060200190929190505050610d52565b005b34801561024657600080fd5b5061024f61116a565b6040518082815260200191505060405180910390f35b34801561027157600080fd5b5061027a611170565b6040518082815260200191505060405180910390f35b610298611176565b604051808215151515815260200191505060405180910390f35b3480156102be57600080fd5b506102eb600480360360208110156102d557600080fd5b810190808035906020019092919050505061123f565b60405180868152602001806020018581526020018473ffffffffffffffffffffffffffffffffffffffff1673ffffffffffffffffffffffffffffffffffffffff16815260200183151515158152602001828103825286818151815260200191508051906020019080838360005b83811015610373578082015181840152602081019050610358565b50505050905090810190601f1680156103a05780820380516001836020036101000a031916815260200191505b50965050505050505060405180910390f35b3480156103be57600080fd5b506103eb600480360360208110156103d557600080fd5b810190808035906020019092919050505061133a565b60405180868152602001806020018581526020018473ffffffffffffffffffffffffffffffffffffffff1673ffffffffffffffffffffffffffffffffffffffff16815260200183151515158152602001828103825286818151815260200191508051906020019080838360005b83811015610473578082015181840152602081019050610458565b50505050905090810190601f1680156104a05780820380516001836020036101000a031916815260200191505b50965050505050505060405180910390f35b3480156104be57600080fd5b50610582600480360360408110156104d557600080fd5b81019080803590602001906401000000008111156104f257600080fd5b82018360208201111561050457600080fd5b8035906020019184600183028401116401000000008311171561052657600080fd5b91908080601f016020809104026020016040519081016040528093929190818152602001838380828437600081840152601f19601f82011690508083019250505050505050919291929080359060200190929190505050611435565b005b34801561059057600080fd5b5061059961164c565b6040518082815260200191505060405180910390f35b3480156105bb57600080fd5b5061067f600480360360408110156105d257600080fd5b81019080803590602001906401000000008111156105ef57600080fd5b82018360208201111561060157600080fd5b8035906020019184600183028401116401000000008311171561062357600080fd5b91908080601f016020809104026020016040519081016040528093929190818152602001838380828437600081840152601f19601f82011690508083019250505050505050919291929080359060200190929190505050611652565b005b34801561068d57600080fd5b506106ba600480360360208110156106a457600080fd5b8101908080359060200190929190505050611869565b005b3480156106c857600080fd5b506106f5600480360360208110156106df57600080fd5b8101908080359060200190929190505050611b75565b005b600160009054906101000a900473ffffffffffffffffffffffffffffffffffffffff1681565b60008054600181600116156101000203166002900480601f0160208091040260200160405190810160405280929190818152602001828054600181600116156101000203166002900480156107b35780601f10610788576101008083540402835291602001916107b3565b820191906000526020600020905b81548152906001019060200180831161079657829003601f168201915b505050505081565b6107c3611e81565b6005600083815260200190815260200160002060a0604051908101604052908160008201548152602001600182018054600181600116156101000203166002900480601f0160208091040260200160405190810160405280929190818152602001828054600181600116156101000203166002900480156108855780601f1061085a57610100808354040283529160200191610885565b820191906000526020600020905b81548152906001019060200180831161086857829003601f168201915b50505050508152602001600282015481526020016003820160009054906101000a900473ffffffffffffffffffffffffffffffffffffffff1673ffffffffffffffffffffffffffffffffffffffff1673ffffffffffffffffffffffffffffffffffffffff1681526020016003820160149054906101000a900460ff16151515158152505090506000816060015190506000339050600083600001511180156109335750600254836000015111155b151561093e57600080fd5b8260400151341015151561095157600080fd5b826080015115151561096257600080fd5b3373ffffffffffffffffffffffffffffffffffffffff168273ffffffffffffffffffffffffffffffffffffffff161415151561099d57600080fd5b33836060019073ffffffffffffffffffffffffffffffffffffffff16908173ffffffffffffffffffffffffffffffffffffffff168152505060018360800190151590811515815250508260056000868152602001908152602001600020600082015181600001556020820151816001019080519060200190610a20929190611ec9565b506040820151816002015560608201518160030160006101000a81548173ffffffffffffffffffffffffffffffffffffffff021916908373ffffffffffffffffffffffffffffffffffffffff16021790555060808201518160030160146101000a81548160ff02191690831515021790555090505060008173ffffffffffffffffffffffffffffffffffffffff166801158e460913d000006114b490604051806000019050600060405180830381858888f193505050503d8060008114610b03576040519150601f19603f3d011682016040523d82523d6000602084013e610b08565b606091505b50509050801515610b81576040517f08c379a00000000000000000000000000000000000000000000000000000000081526004018080602001828103825260108152602001807f5472616e73666572206661696c65642e0000000000000000000000000000000081525060200191505060405180910390fd5b7f79558d0d7d4d900e2f15c4cc0a665f1acdbe415e44de900ecdd1e5bf12b56f4e6002548560200151866040015133600160405180868152602001806020018581526020018473ffffffffffffffffffffffffffffffffffffffff1673ffffffffffffffffffffffffffffffffffffffff16815260200183151515158152602001828103825286818151815260200191508051906020019080838360005b83811015610c3a578082015181840152602081019050610c1f565b50505050905090810190601f168015610c675780820380516001836020036101000a031916815260200191505b50965050505050505060405180910390a15050505050565b6000600760003373ffffffffffffffffffffffffffffffffffffffff1673ffffffffffffffffffffffffffffffffffffffff1681526020019081526020016000205490506000600760003373ffffffffffffffffffffffffffffffffffffffff1673ffffffffffffffffffffffffffffffffffffffff168152602001908152602001600020819055503373ffffffffffffffffffffffffffffffffffffffff166108fc829081150290604051600060405180830381858888f19350505050158015610d4e573d6000803e3d6000fd5b5050565b610d5a611f49565b6006600083815260200190815260200160002060a0604051908101604052908160008201548152602001600182018054600181600116156101000203166002900480601f016020809104026020016040519081016040528092919081815260200182805460018160011615610100020316600290048015610e1c5780601f10610df157610100808354040283529160200191610e1c565b820191906000526020600020905b815481529060010190602001808311610dff57829003601f168201915b50505050508152602001600282015481526020016003820160009054906101000a900473ffffffffffffffffffffffffffffffffffffffff1673ffffffffffffffffffffffffffffffffffffffff1673ffffffffffffffffffffffffffffffffffffffff1681526020016003820160149054906101000a900460ff161515151581525050905060008160600151905060008260000151118015610ec55750600354826000015111155b1515610ed057600080fd5b81604001513411151515610ee357600080fd5b8160800151151515610ef457600080fd5b3373ffffffffffffffffffffffffffffffffffffffff168173ffffffffffffffffffffffffffffffffffffffff1614151515610f2f57600080fd5b33826060019073ffffffffffffffffffffffffffffffffffffffff16908173ffffffffffffffffffffffffffffffffffffffff168152505060018260800190151590811515815250508160066000858152602001908152602001600020600082015181600001556020820151816001019080519060200190610fb2929190611ec9565b506040820151816002015560608201518160030160006101000a81548173ffffffffffffffffffffffffffffffffffffffff021916908373ffffffffffffffffffffffffffffffffffffffff16021790555060808201518160030160146101000a81548160ff0219169083151502179055509050503373ffffffffffffffffffffffffffffffffffffffff166108fc349081150290604051600060405180830381858888f1935050505015801561106d573d6000803e3d6000fd5b507f88ac385b7d9feae240f18d85349cc97f7bcb62b0f4d11fdc24068c43c7a6bf3d6003548360200151846040015133600160405180868152602001806020018581526020018473ffffffffffffffffffffffffffffffffffffffff1673ffffffffffffffffffffffffffffffffffffffff16815260200183151515158152602001828103825286818151815260200191508051906020019080838360005b8381101561112757808201518184015260208101905061110c565b50505050905090810190601f1680156111545780820380516001836020036101000a031916815260200191505b50965050505050505060405180910390a1505050565b60035481565b60045481565b6000600454341115611237573460076000600160009054906101000a900473ffffffffffffffffffffffffffffffffffffffff1673ffffffffffffffffffffffffffffffffffffffff1673ffffffffffffffffffffffffffffffffffffffff168152602001908152602001600020505033600160006101000a81548173ffffffffffffffffffffffffffffffffffffffff021916908373ffffffffffffffffffffffffffffffffffffffff160217905550346004819055506001905061123c565b600090505b90565b6005602052806000526040600020600091509050806000015490806001018054600181600116156101000203166002900480601f0160208091040260200160405190810160405280929190818152602001828054600181600116156101000203166002900480156112f15780601f106112c6576101008083540402835291602001916112f1565b820191906000526020600020905b8154815290600101906020018083116112d457829003601f168201915b5050505050908060020154908060030160009054906101000a900473ffffffffffffffffffffffffffffffffffffffff16908060030160149054906101000a900460ff16905085565b6006602052806000526040600020600091509050806000015490806001018054600181600116156101000203166002900480601f0160208091040260200160405190810160405280929190818152602001828054600181600116156101000203166002900480156113ec5780601f106113c1576101008083540402835291602001916113ec565b820191906000526020600020905b8154815290600101906020018083116113cf57829003601f168201915b5050505050908060020154908060030160009054906101000a900473ffffffffffffffffffffffffffffffffffffffff16908060030160149054906101000a900460ff16905085565b6000825111151561144557600080fd5b60008111151561145457600080fd5b60036000815480929190600101919050555060a06040519081016040528060035481526020018381526020018281526020013373ffffffffffffffffffffffffffffffffffffffff168152602001600015158152506006600060035481526020019081526020016000206000820151816000015560208201518160010190805190602001906114e4929190611ec9565b506040820151816002015560608201518160030160006101000a81548173ffffffffffffffffffffffffffffffffffffffff021916908373ffffffffffffffffffffffffffffffffffffffff16021790555060808201518160030160146101000a81548160ff0219169083151502179055509050507fbc59c0c8165864dcceb377dd07d8f431d4303f8e501cb0a0374a10cc68d71836600354838333600060405180868152602001806020018581526020018473ffffffffffffffffffffffffffffffffffffffff1673ffffffffffffffffffffffffffffffffffffffff16815260200183151515158152602001828103825286818151815260200191508051906020019080838360005b8381101561160a5780820151818401526020810190506115ef565b50505050905090810190601f1680156116375780820380516001836020036101000a031916815260200191505b50965050505050505060405180910390a15050565b60025481565b6000825111151561166257600080fd5b60008111151561167157600080fd5b60026000815480929190600101919050555060a06040519081016040528060025481526020018381526020018281526020013373ffffffffffffffffffffffffffffffffffffffff16815260200160001515815250600560006002548152602001908152602001600020600082015181600001556020820151816001019080519060200190611701929190611ec9565b506040820151816002015560608201518160030160006101000a81548173ffffffffffffffffffffffffffffffffffffffff021916908373ffffffffffffffffffffffffffffffffffffffff16021790555060808201518160030160146101000a81548160ff0219169083151502179055509050507fbc59c0c8165864dcceb377dd07d8f431d4303f8e501cb0a0374a10cc68d71836600254838333600060405180868152602001806020018581526020018473ffffffffffffffffffffffffffffffffffffffff1673ffffffffffffffffffffffffffffffffffffffff16815260200183151515158152602001828103825286818151815260200191508051906020019080838360005b8381101561182757808201518184015260208101905061180c565b50505050905090810190601f1680156118545780820380516001836020036101000a031916815260200191505b50965050505050505060405180910390a15050565b611871611f49565b60008090505b600354811015611a66578260066000838152602001908152602001600020600001541415611a59576006600082815260200190815260200160002060a0604051908101604052908160008201548152602001600182018054600181600116156101000203166002900480601f0160208091040260200160405190810160405280929190818152602001828054600181600116156101000203166002900480156119615780601f1061193657610100808354040283529160200191611961565b820191906000526020600020905b81548152906001019060200180831161194457829003601f168201915b50505050508152602001600282015481526020016003820160009054906101000a900473ffffffffffffffffffffffffffffffffffffffff1673ffffffffffffffffffffffffffffffffffffffff1673ffffffffffffffffffffffffffffffffffffffff1681526020016003820160149054906101000a900460ff161515151581525050915060066000828152602001908152602001600020600080820160009055600182016000611a139190611f91565b60028201600090556003820160006101000a81549073ffffffffffffffffffffffffffffffffffffffff02191690556003820160146101000a81549060ff021916905550505b8080600101915050611877565b50600360008154809291906001900391905055507f987d8331399c0a7795e675d8a5f9d68efa60478685c4cb1dd89ec8d8de4e99be6003548260200151836040015133600060405180868152602001806020018581526020018473ffffffffffffffffffffffffffffffffffffffff1673ffffffffffffffffffffffffffffffffffffffff16815260200183151515158152602001828103825286818151815260200191508051906020019080838360005b83811015611b33578082015181840152602081019050611b18565b50505050905090810190601f168015611b605780820380516001836020036101000a031916815260200191505b50965050505050505060405180910390a15050565b611b7d611e81565b60008090505b600254811015611d72578260056000838152602001908152602001600020600001541415611d65576005600082815260200190815260200160002060a0604051908101604052908160008201548152602001600182018054600181600116156101000203166002900480601f016020809104026020016040519081016040528092919081815260200182805460018160011615610100020316600290048015611c6d5780601f10611c4257610100808354040283529160200191611c6d565b820191906000526020600020905b815481529060010190602001808311611c5057829003601f168201915b50505050508152602001600282015481526020016003820160009054906101000a900473ffffffffffffffffffffffffffffffffffffffff1673ffffffffffffffffffffffffffffffffffffffff1673ffffffffffffffffffffffffffffffffffffffff1681526020016003820160149054906101000a900460ff161515151581525050915060056000828152602001908152602001600020600080820160009055600182016000611d1f9190611f91565b60028201600090556003820160006101000a81549073ffffffffffffffffffffffffffffffffffffffff02191690556003820160146101000a81549060ff021916905550505b8080600101915050611b83565b50600260008154809291906001900391905055507ff496dc4104e8c07326315993c897f67e7884a69826c2955fd5616becff7214136002548260200151836040015133600060405180868152602001806020018581526020018473ffffffffffffffffffffffffffffffffffffffff1673ffffffffffffffffffffffffffffffffffffffff16815260200183151515158152602001828103825286818151815260200191508051906020019080838360005b83811015611e3f578082015181840152602081019050611e24565b50505050905090810190601f168015611e6c5780820380516001836020036101000a031916815260200191505b50965050505050505060405180910390a15050565b60a060405190810160405280600081526020016060815260200160008152602001600073ffffffffffffffffffffffffffffffffffffffff1681526020016000151581525090565b828054600181600116156101000203166002900490600052602060002090601f016020900481019282601f10611f0a57805160ff1916838001178555611f38565b82800160010185558215611f38579182015b82811115611f37578251825591602001919060010190611f1c565b5b509050611f459190611fd9565b5090565b60a060405190810160405280600081526020016060815260200160008152602001600073ffffffffffffffffffffffffffffffffffffffff1681526020016000151581525090565b50805460018160011615610100020316600290046000825580601f10611fb75750611fd6565b601f016020900490600052602060002090810190611fd59190611fd9565b5b50565b611ffb91905b80821115611ff7576000816000905550600101611fdf565b5090565b9056fea165627a7a723058200ac68c7eee56421cfcfd48470c61daf3808b210fb2f2b166477cd0d80d58ae7c0029",
  "source": "pragma solidity ^0.5.0;\r\n\r\ncontract Marketplace {\r\n    string public name;\r\n    address payable public richest;\r\n    uint public productCount = 0;\r\n    uint public requestCount = 0;\r\n    uint public mostSent;\r\n\r\n    mapping(uint => Product) public products;\r\n    mapping(uint => Request) public requests;\r\n    mapping(address => uint) pendingWithdrawals;\r\n\r\n    struct Product {\r\n        uint id;\r\n        string name;\r\n        uint price;\r\n        address payable owner;\r\n        bool purchased;\r\n    }\r\n    struct Request {\r\n        uint id;\r\n        string name;\r\n        uint price;\r\n        address payable owner;\r\n        bool purchased;\r\n    }\r\n    event Transfer(\r\n        address indexed _from,\r\n        address indexed _to,\r\n        uint256 _value\r\n    );\r\n    event ProductCreated(\r\n        uint id,\r\n        string name,\r\n        uint price,\r\n        address payable owner,\r\n        bool purchased\r\n    );\r\n    event ProductDeleted(\r\n        uint id,\r\n        string name,\r\n        uint price,\r\n        address payable owner,\r\n        bool purchased\r\n    );\r\n    event ProductPurchased(\r\n        uint id,\r\n        string name,\r\n        uint price,\r\n        address payable owner,\r\n        bool purchased\r\n    );\r\n\r\n    event RequestCreated(\r\n        uint id,\r\n        string name,\r\n        uint price,\r\n        address payable owner,\r\n        bool purchased\r\n    );\r\n    event RequestDeleted(\r\n        uint id,\r\n        string name,\r\n        uint price,\r\n        address payable owner,\r\n        bool purchased\r\n    );\r\n    event RequestPurchased(\r\n        uint id,\r\n        string name,\r\n        uint price,\r\n        address payable owner,\r\n        bool purchased\r\n    );\r\n    constructor() public payable {\r\n        name = \"Dapp University Marketplace\";\r\n        richest = msg.sender;\r\n        mostSent = msg.value;\r\n    }\r\n    function createProduct(string memory _name, uint _price) public {\r\n        // Require a valid name\r\n        require(bytes(_name).length > 0);\r\n        // Require a valid price\r\n        require(_price > 0);\r\n        // Increment product count\r\n        productCount ++;\r\n        // Create the product\r\n        products[productCount] = Product(productCount, _name, _price, msg.sender, false);\r\n        // Trigger an event\r\n        emit ProductCreated(productCount, _name, _price, msg.sender, false);\r\n    }\r\n    function deleteProduct(uint _id) public {\r\n        Product memory _product;\r\n        // Delte product item which has _id\r\n        for( uint i = 0; i < productCount; i++) {\r\n            if (products[i].id == _id) {\r\n                _product = products[i];\r\n                delete products[i];\r\n            }\r\n        }\r\n        productCount --;\r\n        // Trigger an event\r\n        emit ProductDeleted(productCount, _product.name, _product.price, msg.sender, false);\r\n    }\r\n    function becomeRichest() public payable returns (bool) {\r\n        if (msg.value > mostSent) {\r\n            pendingWithdrawals[richest] == msg.value;\r\n            richest = msg.sender;\r\n            mostSent = msg.value;\r\n            return true;\r\n        } else {\r\n            return false;\r\n        }\r\n    }\r\n    function withdraw() public {\r\n        uint amount = pendingWithdrawals[msg.sender];\r\n        pendingWithdrawals[msg.sender] = 0;\r\n        msg.sender.transfer(amount);\r\n    }\r\n    function purchaseProduct(uint _id) public payable {\r\n        // Fetch the product\r\n        Product memory _product = products[_id];\r\n        // Fetch the owner\r\n        address payable _seller = _product.owner;\r\n        address payable _producter = msg.sender;\r\n        //richest = msg.sender;\r\n        //pendingWithdrawals[richest] += msg.value;\r\n\r\n        // Make sure the product has a valid id\r\n        require(_product.id > 0 && _product.id <= productCount);\r\n        // Require that there is enough Ether in the transaction\r\n        require(msg.value >= _product.price);\r\n        // Require that the product has not been purchased already\r\n        require(!_product.purchased);\r\n        // Require that the buyer is not the seller\r\n        require(_seller != msg.sender);\r\n        // Transfer ownership to the buyer\r\n        _product.owner = msg.sender;\r\n        // Mark as purchased\r\n        _product.purchased = true;\r\n        // Update the product\r\n        products[_id] = _product;\r\n\r\n        //uint amount = pendingWithdrawals[msg.sender];\r\n        //pendingWithdrawals[msg.sender] = 0;\r\n        // Pay the seller by sending them Ether\r\n        (bool success, ) = _producter.call.value(20 ether).gas(5300)(\"\");\r\n        require(success, \"Transfer failed.\");\r\n        \r\n        // Trigger an event\r\n        emit ProductPurchased(productCount, _product.name, _product.price, msg.sender, true);\r\n    }\r\n    function createRequest(string memory _name, uint _price) public {\r\n        // Require a valid name\r\n        require(bytes(_name).length > 0);\r\n        // Require a valid price\r\n        require(_price > 0);\r\n        // Increment product count\r\n        requestCount ++;\r\n        // Create the product\r\n        requests[requestCount] = Request(requestCount, _name, _price, msg.sender, false);\r\n        // Trigger an event\r\n        emit ProductCreated(requestCount, _name, _price, msg.sender, false);\r\n    }\r\n    function deleteRequest(uint _id) public {\r\n        Request memory _request;\r\n        // Delte product item which has _id\r\n        for( uint i = 0; i < requestCount; i++) {\r\n            if (requests[i].id == _id) {\r\n                _request = requests[i];\r\n                delete requests[i];\r\n            }\r\n        }\r\n        requestCount --;\r\n        // Trigger an event\r\n        emit RequestDeleted(requestCount, _request.name, _request.price, msg.sender, false);\r\n    }\r\n    function purchaseRequest(uint _id) public payable {\r\n        // Fetch the product\r\n        Request memory _request = requests[_id];\r\n        // Fetch the owner\r\n        address payable _buyer = _request.owner;\r\n        // Make sure the product has a valid id\r\n        require(_request.id > 0 && _request.id <= requestCount);\r\n        // Require that there is enough Ether in the transaction\r\n        require(msg.value <= _request.price);\r\n        // Require that the product has not been purchased already\r\n        require(!_request.purchased);\r\n        // Require that the buyer is not the seller\r\n        require(_buyer != msg.sender);\r\n        // Transfer ownership to the buyer\r\n        _request.owner = msg.sender;\r\n        // Mark as purchased\r\n        _request.purchased = true;\r\n        // Update the product\r\n        requests[_id] = _request;\r\n        // Pay the seller by sending them Ether\r\n        address(msg.sender).transfer(msg.value);\r\n        // Trigger an event\r\n        emit RequestPurchased(requestCount, _request.name, _request.price, msg.sender, true);\r\n    }\r\n}\r\n",
  "sourcePath": "D:/git work/react/BlockChain/src/contracts/Marketplace.sol",
  "compiler": {
    "name": "solc",
    "version": "0.5.0+commit.1d4f565a.Emscripten.clang"
  },
  "schemaVersion": "3.0.2",
  "updatedAt": "2021-03-19T17:55:51.935Z",
  "devdoc": {
    "methods": {}
  },
  "userdoc": {
    "methods": {}
  }
}